:020000040800F2
:10000000C06C00207D280008F5CF0008F7CF00085D
:10001000FBCF0008FFCF000803D00008000000005D
:1000200000000000000000000000000007D00008F1
:1000300009D00008000000000BD000080DD0000817
:100040009728000897280008972800089728000894
:100050009728000897280008972800089728000884
:1000600075D50008972800089728000897280008E9
:100070009728000897280008972800089728000864
:100080009728000897280008972800089728000854
:1000900097280008972800089728000891D500089D
:1000A0009728000897280008972800089728000834
:1000B000B1D500089728000897280008972800085D
:1000C0009728000897280008972800089728000814
:1000D00097280008A9D100088FD200082DD3000866
:1000E00097280008972800089728000897280008F4
:1000F00097280008972800089728000897280008E4
:1001000097280008972800089728000897280008D3
:10011000D1D40008972800089728000897280008DD
:1001200097280008972800089728000897280008B3
:1001300000F002F800F0B0F80AA090E8000C824449
:100140008344AAF10107DA4501D100F0A5F8AFF226
:10015000090EBAE80F0013F0010F18BFFB1A43F0A5
:100160000103184798FD0200B8FD02000A444FF051
:10017000000C10F8013B13F0070408BF10F8014B06
:100180001D1108BF10F8015B641E05D010F8016B4B
:10019000641E01F8016BF9D113F0080F1EBF10F8AF
:1001A000014BAD1C0C1B09D16D1E58BF01F801CBD2
:1001B000FAD505E014F8016B01F8016B6D1EF9D555
:1001C0009142D6D37047000000230024002500266A
:1001D000103A28BF78C1FBD8520728BF30C148BFAA
:1001E0000B6070476E292BF00C8770292CF07780FC
:1001F00066292FF00A8065292FF0078067292FF0E4
:1002000004806129AFF3008003681B0A28BF41F016
:10021000800169292BF0848464292BF0818475295D
:100220002BF07E846F292CF0048078292CF04380F9
:10023000E9292BF09F87E4292BF09C87F5292BF0E7
:100240009987EF292CF00180F8292CF0428003686F
:10025000DB0928BF41F0800163292BF00E87732949
:100260002BF01387E3292CF01983F3292CF01E833C
:10027000002070471FB52CF0B5FB040000200021C2
:100280002DF074FE401C6060002000212DF084FEE3
:10029000E0601FBD10B510BD2CF07FFB1146FFF7CD
:1002A000E9FF02F019FD2CF061FC03B4FFF7F2FF47
:1002B00003BC02F003FB00000CB50020019000908D
:1002C0006C48006840F480306A49086000BF6948A3
:1002D000006800F4003000900198401C01900098E4
:1002E00018B90198B0F5A06FF1D16248006800F428
:1002F000003010B10120009001E000200090009833
:10030000012843D15C48006840F010005A49086059
:100310000846006820F0030008600846006840F0C6
:1003200002000860534840685249486008464068E7
:1003300048600846406840F480604860084640686D
:1003400020F47C1048600846406840F4E81048609B
:100350000846006840F08070086000BF45480068AB
:1003600000F000700028F9D04248406820F00300F7
:10037000404948600846406840F00200486000BFBD
:100380003C48406800F00C000828F9D10CBD10B5BD
:10039000FFF792FF10BD10B53648006840F001002D
:1003A000344908600846406834490840314948608B
:1003B00008460068324908402E490860084600682F
:1003C00020F4802008600846406820F4FE00486061
:1003D0004FF41F008860FFF7DAFF4FF000602949F3
:1003E000086010BD10B5002100200022214B5B6881
:1003F00003F00C0121B1042906D0082928D107E017
:10040000214B224C236027E01F4B204C236023E02C
:10041000184B5B6803F47010164B5B6803F4803272
:10042000022303EB904022B9194B4343174C23603E
:100430000DE0104B5B6803F4003323B1144B4343CE
:10044000124C236003E0104B4343104C236003E045
:100450000D4B0E4C236000BF00BF064B5B68C3F31F
:1004600003130C4CE15C094B1B68CB40074C236029
:1004700010BD000000100240002002400000FFF804
:10048000FFFFF6FE08ED00E000127A0000000020F9
:1004900000093D0004000020DF48006840F0010032
:1004A000DD49086008464068DC490840DA49486090
:1004B00008460068DA490840D749086008460068DD
:1004C00020F4802008600846406820F4FE00486060
:1004D0004FF41F0088607047CF49096821F48031CC
:1004E000CD4A11601146096821F480211160B0F5F0
:1004F000803F03D0B0F5802F0ED106E0C6490968D1
:1005000041F48031C44A116007E0C349096841F4ED
:10051000A021C14A116000E000BF00BF704710B5C4
:1005200001460022002300204A11012A02D1BA4CC0
:10053000236806E0022A02D1B74C236A01E0B64CD8
:10054000636A01F01F02012494401C400CB1012099
:1005500000E0002010BD38B50020009000240025E8
:1005600000BF3120FFF7DBFF05460098401C0090DC
:100570000098B0F5A06F01D0002DF2D03120FFF728
:10058000CEFF08B1012400E00024204638BD01461A
:100590000020A14A106820F0F80040EAC100106075
:1005A0007047A04908607047024600209A4B58687F
:1005B00020F47C1042EA01031843974B58607047BF
:1005C00098490866704701460020934A506820F019
:1005D00003000843506070478F48406800F00C00EB
:1005E0007047014600208C4A506820F0F000084314
:1005F0005060704701460020874A506820F4E06050
:1006000008435060704701460020834A506820F438
:10061000605040EAC1005060704729B17E4A527A6A
:1006200002437D4B5A7204E07B4A527A82437A4BF2
:100630005A7270477B49D8310860704701460020E4
:10064000754A506820F440400843506070470021CC
:10065000714A20321170704A82F82010012802D0AD
:1006600004280AD104E001216B4A2032117005E010
:100670000521694A2032117000E000BF00BF7047B9
:100680006949086070476449096A0143624A116216
:100690007047654944390860704730B50021002231
:1006A000002400235C4D6D6805F00C0121B1042984
:1006B00005D0082923D105E05C4D056022E05B4DA3
:1006C00005601FE0544D6D6805F47012524D6D6861
:1006D00005F48034022505EB92421CB9544D554374
:1006E00005600BE04C4D6D6805F400351DB1504DB3
:1006F0005543056002E04D4D5543056002E04B4D0A
:10070000056000BF00BF444D6D6805F0F0010909A8
:10071000484D6B5C0568DD4045603F4D6D6805F4F4
:10072000E061090A434D6B5C4568DD4085603A4DE8
:100730006D6805F46051C90A3E4D6B5C4568DD404B
:10074000C560354D6D6805F44041890B3A4D6B5CD1
:10075000C568B5FBF3F5056130BD29B12E4A526974
:1007600002432D4B5A6104E02B4A526982432A4BC3
:100770005A61704729B1284A92690243264B9A610F
:1007800004E0254A92698243234B9A61704729B15C
:10079000214AD2690243204BDA6104E01E4AD26941
:1007A00082431D4BDA61704729B11B4AD26802436C
:1007B000194BDA6004E0184AD2688243164BDA60BB
:1007C000704729B1144A12690243134B1A6104E0BD
:1007D000114A12698243104B1A617047124940391D
:1007E000086070470F49C86470470B49C87170476B
:1007F0000948406A40F080700749486270470146E6
:100800000020054A92680A400AB1012000E0002059
:100810007047014988727047001002400000FFF8DD
:10082000FFFFF6FE000042428004424200127A00BE
:1008300000093D001400002024000020314901433C
:10084000314A1160704770B5002100230F22C4782F
:1008500004B32D4C246804F4E064C4F5E064210A78
:10086000C1F10403CA40447804FA03F184781440C7
:1008700021430901254C0678A155047804F01F0591
:100880000124AC4005786D11AD0005F1E025C5F8F7
:10089000004109E0047804F01F050124AC401C4D20
:1008A0000678761145F8264070BD1A4A0A40024380
:1008B000154B1B1F1A60704739B1134A121D12687D
:1008C0000243114B1B1D1A6006E00F4A121D1268ED
:1008D00082430D4B1B1D1A607047042808D14FF04E
:1008E000E021096941F004014FF0E022116107E0C5
:1008F0004FF0E021096921F004014FF0E02211617D
:10090000704700000000FA050CED00E000E400E094
:1009100080E100E080FFFF1F10B50446CC48844210
:1009200008D101210420FFF73FFF00210420FFF739
:100930003BFF46E0C748844208D101210820FFF769
:1009400033FF00210820FFF72FFF3AE0C24884421E
:1009500008D101211020FFF727FF00211020FFF709
:1009600023FF2EE0BD48844208D101212020FFF75B
:100970001BFF00212020FFF717FF22E0B848844228
:1009800008D101214020FFF70FFF00214020FFF791
:100990000BFF16E0B348844208D101218020FFF705
:1009A00003FF00218020FFF7FFFE0AE0AE488442EB
:1009B00007D101218015FFF7F7FE0021A015FFF7F1
:1009C000F3FE10BD10B501210846FFF7EDFE002132
:1009D0000120FFF7E9FE10BD2DE9F0410246002598
:1009E0000026002000230024002791F803C00CF00B
:1009F0000F0591F803C00CF0100CBCF1000F03D0F0
:100A000091F802C04CEA050591F800C0BCF1000F56
:100A100031D0146800202BE04FF0010C0CFA00F3E9
:100A2000B1F800C00CEA03069E4220D183004FF0CB
:100A30000F0C0CFA03F7BC4305FA03FC4CEA040460
:100A400091F803C0BCF1280F06D14FF0010C0CFA4D
:100A500000FCC2F814C00AE091F803C0BCF1480FD2
:100A600005D14FF0010C0CFA00FCC2F810C0401C7C
:100A70000828D1D31460B1F800C0BCF1FF0F34DDF9
:100A8000546800202EE000F1080C4FF0010808FA2D
:100A90000CF3B1F800C00CEA03069E4221D183009A
:100AA0004FF00F0C0CFA03F7BC4305FA03FC4CEAB9
:100AB000040491F803C0BCF1280F05D100F1080C23
:100AC00008FA0CF8C2F8148091F803C0BCF1480F82
:100AD00007D100F1080C4FF0010808FA0CF8C2F831
:100AE0001080401C0828CED35460BDE8F0814FF63A
:100AF000FF710180022181700421C170704702469C
:100B0000002093680B400BB1012000E000207047EB
:100B10000146886880B2704702460020D3680B40C7
:100B20000BB1012000E0002070470146C86880B288
:100B3000704701617047416170470AB1016100E08F
:100B400041617047C16070474FF480320A4382614F
:100B50008161826182698269704702460020434B4D
:100B600018684FF68073184040EA021008433F4B64
:100B7000186070473E49C8617047F0B50A460023C7
:100B800000240021002500F00046B6F1004F02D1FC
:100B9000364EF16901E0354E7168C0F3034583B20A
:100BA00000F44016B6F5401F08D121F070612F4EB9
:100BB000766826F070662D4F7E6012E000F4801695
:100BC000B6F5801F06D1032606FA05F4A14341F0CD
:100BD000706106E0460D360103FA06F6B14341F0B6
:100BE000706122B1460D360103FA06F6314300F07A
:100BF0000046B6F1004F02D11C4EF16101E01B4EE0
:100C00007160F0BD30B500228B071C0F0F2303FA73
:100C100004F2164B08338C1053F824309343134CD2
:100C200008348D1044F8253023468C1053F82430B6
:100C30008C07240F00FA04F423430C4C08348D1065
:100C400044F8253030BD0A49DC31086070470000A7
:100C500000080140000C0140001001400014014058
:100C600000180140001C014000200140000001402C
:100C70000000204210B50446FB48844209D10121FE
:100C80008803FFF791FD00214FF48040FFF78CFDB2
:100C900032E0F648844209D101214804FFF791FD72
:100CA00000214FF40030FFF78CFD25E0F04884422E
:100CB00009D101218804FFF784FD00214FF4802031
:100CC000FFF77FFD18E0EB48844209D10121C804F9
:100CD000FFF777FD00214FF40020FFF772FD0BE0D6
:100CE000E548844208D101210805FFF76AFD00218B
:100CF0004FF48010FFF765FD10BD2DE9F04786B079
:100D000005460E460024A24600BFA1460027B08932
:100D100000B100BF2F462C8A4CF6FF700440F088CB
:100D200004432C82AC894EF6F3100440B08831891C
:100D30000843718908430443AC81AC8A4FF6FF40F5
:100D40000440B0890443AC8201A8FFF7A6FCC64862
:100D5000874202D1DDF810A001E0DDF80CA0A889DF
:100D600000F4004040B10AEBCA0000EB0A10316801
:100D70004900B0FBF1F807E00AEBCA0000EB0A10EB
:100D800031688900B0FBF1F86420B8FBF0F0040191
:100D90002009642101FB1089A88900F4004040B1BA
:100DA000322000EBC900B0FBF1F000F00700044373
:100DB00008E0322000EB09106421B0FBF1F000F0F4
:100DC0000F0004432C8106B0BDE8F0874FF41651A4
:100DD000016000218180C18001810C2141810021BD
:100DE0008181704710B502460020108A4FF2FF0340
:100DF00018400B884C8823438C882343CC8823439A
:100E00001843108210BD0021018041808180C18083
:100E1000704721B1828942F40052828104E08289C4
:100E20004DF6FF731A4082817047F0B503460024E7
:100E300000260025002040F66A17B94200D100BF05
:100E40001846C1F3421401F01F06012707FA06F500
:100E5000012C01D10C3004E0022C01D1103000E053
:100E600014301AB107682F43076002E00768AF43E8
:100E70000760F0BD1AB1838A0B43838202E0838A44
:100E80008B4383827047028A4FF6F0731A400282C6
:100E9000028A0A430282704782894FF2FF731A4026
:100EA000828182890A438281704721B1828942F01E
:100EB0000202828104E082894FF6FD731A4082812A
:100EC0007047028A4FF6DF731A400282028A0A4391
:100ED0000282704721B1028A42F48042028204E019
:100EE000028A4BF6FF731A4002827047C1F3080270
:100EF0008280704701468888C0F308007047818966
:100F000041F0010181817047028BD2B20283028BD2
:100F100042EA012202837047028B02F47F4202837D
:100F2000028B0A430283704721B1828A42F0200279
:100F3000828204E0828A4FF6DF731A408282704711
:100F400021B1828A42F01002828204E0828A4FF646
:100F5000EF731A408282704721B1828A42F0080200
:100F6000828204E0828A4FF6F7731A4082827047C9
:100F700021B1828942F40042828103E08289C2F376
:100F80000E028281704721B1828A42F4006282821D
:100F900004E0828A4FF2FF731A4082827047828A8D
:100FA0004FF6FB731A408282828A0A43828270471C
:100FB00021B1828A42F00202828204E0828A4FF6E4
:100FC000FD731A408282704702460020B1F5007F0F
:100FD00000D100BF13880B400BB1012000E00020BE
:100FE000704701F40072B2F5007F00D100BFCA4320
:100FF0000280704770B502460024002300250020BF
:1010000040F66A16B14200D100BFC1F3421501F0AB
:101010001F03012606FA03F3012D02D196893340FE
:1010200006E0022D02D1168A334001E0968A334051
:101030000C12012606FA04F41688344013B10CB1E0
:10104000012000E0002070BD10B50022002340F612
:101050006A14A14200D100BF0A1201249440A3B235
:10106000DC43048010BD0000003801400044004013
:1010700000480040004C0040005000400146002065
:10108000FE4A106800F03800084310607047FB49C2
:10109000096821F00801F94A116011460968014305
:1010A00011607047F549096821F01001F34A116099
:1010B00011460968014311607047F148EF494860E3
:1010C000F04848607047EE48EC494860ED48486099
:1010D0007047EA48006940F08000E84908617047BD
:1010E000E648006940F08000E44908617047042048
:1010F000E249C96801F0010109B101200EE0DF49B0
:10110000C96801F0040109B1022007E0DB49C968A0
:1011100001F0100109B1032000E00420704700B580
:1011200002460423FFF7E3FF034603E0FFF7DFFF78
:101130000346521E012B01D1002AF7D102B9052323
:10114000184600BD30B5044604254FF43020FFF7A3
:10115000E6FF0546042D17D1C848006940F002009B
:10116000C649086108464461006940F040000861D2
:101170004FF43020FFF7D3FF0546C048006941F621
:10118000FD710840BD490861284630BD10B50424F2
:101190004FF43020FFF7C3FF0446042C16D1B748A4
:1011A000006940F00400B54908610846006940F054
:1011B000400008614FF43020FFF7B1FF0446AF480C
:1011C000006941F6FB710840AC490861204610BD3A
:1011D00000B502460423FFF78AFF034603E0FFF74A
:1011E00086FF0346521E012B01D1002AF7D102B916
:1011F0000523184600BD10B504244FF43020FFF736
:10120000E7FF0446042C16D19C48006940F0040016
:101210009A4908610846006940F0400008614FF4AF
:101220003020FFF7D5FF04469448006941F6FB7172
:10123000084092490861204610BD00208F49C969C5
:1012400001F0020109B1012000E00020704730B533
:10125000A5250424FFF7F1FF00B100254FF430204D
:10126000FFF75DFF0446042C3AD185488349886026
:10127000844888600846006940F0200008610846FC
:10128000006940F0400008614FF43020FFF747FF4D
:101290000446042C1BD17948006941F6DF710840EF
:1012A000764908610846006940F0100008617648F8
:1012B0000580E002FFF733FF0446052C10D06F488D
:1012C000006941F6EF7108406C49086108E0052C9F
:1012D00006D06A48006941F6EF7108406749086125
:1012E000204630BD78B506460C4604250020009007
:1012F000E802FFF714FF0546042D24D15F4800697A
:1013000040F001005D4908613480E802FFF707FF03
:101310000546042D10D1B01C0090200C00990880C7
:10132000E802FFF7FCFE05465448006941F6FE71ED
:1013300008405249086106E05048006941F6FE71D4
:1013400008404E490861284678BD70B504460D46F0
:101350000426F002FFF7E3FE0646042E11D14748AB
:10136000006940F00100454908612580F002FFF75F
:10137000D6FE06464148006941F6FE7108403F49E5
:101380000861304670BD70B505460E460424E00283
:10139000FFF7C5FE0446042C17D139483749886049
:1013A000384888600846006940F0100008612E80C7
:1013B000E002FFF7B4FE0446052C06D02F48006972
:1013C00041F6EF7108402D490861204670BD2DE9B6
:1013D000F04304464FF6FF763746B046B146042543
:1013E000E443E6B2C4F30727C4F307484FEA14699D
:1013F000E802FFF794FE0546042D49D120481F4915
:101400008860204888600846006940F01000086144
:10141000FF2E06D01C4808300680E802FFF77FFE4A
:101420000546042D08D1FF2F06D017480A30078043
:10143000E802FFF774FE0546042D0AD1B8F1FF0F4C
:1014400007D011480C30A0F80080E802FFF767FED3
:101450000546042D0AD1B9F1FF0F07D00A480E3016
:10146000A0F80090E802FFF75AFE0546052D0FD0C0
:101470000248006941F6EF71084007E00020024091
:1014800023016745AB89EFCD00F8FF1F664908616E
:101490002846BDE8F08330B5054604244FF43020DB
:1014A000FFF73DFE0446042C41D160485E49886048
:1014B0005F4888600846006940F0200008610846DF
:1014C000006940F0400008614FF43020FFF727FE2C
:1014D0000446042C22D15448006941F6DF710840CB
:1014E000514908610846006940F0100008611DB1CB
:1014F00000205049088002E0A5204E4908804FF4A2
:101500003020FFF70CFE0446052C10D04648006939
:1015100041F6EF7108404449086108E0052C06D007
:101520004148006941F6DF7108403F4908612046A3
:1015300030BDF0B505460E46174604243B483A49EF
:1015400088603B488860E002FFF7E9FD0446042C10
:1015500019D13548006940F010003349086147F05F
:10156000F800304328433349891C0880E002FFF724
:10157000D6FD0446052C06D02B48006941F6EF71D4
:101580000840294908612046F0BD2748C069800805
:1015900070472548006A704700202349096801F018
:1015A000200109B1012000E00020704729B11E4A46
:1015B000126902431C4B1A6104E01B4A1269824300
:1015C000194B1A61704701460020012908D1164ABB
:1015D000D26902F001020AB1012008E0002006E011
:1015E000114AD2680A400AB1012000E00020704789
:1015F0000D49C860704704200B49C96801F001011A
:1016000009B101200EE00849C96801F0040109B1DF
:10161000022007E00449C96801F0100109B1032064
:1016200000E00420704700000020024023016745CD
:10163000AB89EFCD00F8FF1F10B50446BE488442C9
:1016400008D101218014FFF7AFF80021A014FFF7A3
:10165000ABF816E0B948844208D101210014FFF725
:10166000B0F800212014FFF7ACF80AE0B448844237
:1016700007D10121C013FFF7A4F80021E013FFF701
:10168000A0F810BD10B50022028802F441520B8868
:101690004C8823438C882343CC8823430C892343E1
:1016A0004C8923438C892343CC8923431A430280EA
:1016B000838B4FF2FF74234083830B8A038210BD18
:1016C0002DE9F04F85B005460C464FF00009022782
:1016D0004FF000084FF0010B0026B246A88B4FF2E6
:1016E00040010840A88302202884B5F81C90A06817
:1016F000022801D100BF38E0A08810B94FF0010BDB
:1017000001E04FF0020B8D48854200D100E000BFA0
:101710006846FEF7C2FFDDF800A0E088B0F5007F64
:101720000AD14FEA1A2000EB80004000A168B0FB0C
:10173000F1F0401D86B20BE04FEA4B10BAFBF0F01F
:1017400000EB80004000A168B0FBF1F0401D86B2C4
:101750000A20B6FBF0F606F00108A6EB0800C0F37D
:101760004F074FF6FF7000EA0828022F01DBFF2F1A
:1017700002DD02274FF00008E08840EA0800384305
:101780002884A088A18908436188084321880843E8
:1017900040F4006040EA0909A5F81C9005B0BDE8D6
:1017A000F08F0021018041808180C18001814181D1
:1017B0008181C18107210182704700210180418020
:1017C0008180C1800221816000218181704721B127
:1017D000028842F04002028004E002884FF6BF73A4
:1017E0001A400280704721B1828B42F4806282836A
:1017F00004E0828B4FF6FF331A408283704730B586
:10180000002400230C110125A540ABB21AB1858834
:101810001D43858002E085889D43858030BD1AB1D7
:1018200083880B43838002E083888B4383807047E7
:10183000818170470146888970474FF6FF62914267
:1018400004D0028842F48072028004E002884FF6DD
:10185000FF631A400280704721B1828842F004027F
:10186000828004E082884FF6FB731A4082807047C2
:1018700002884FF2FF731A40028002880A430280F6
:101880007047018841F480510180704721B102887E
:1018900042F40052028004E002884DF6FF731A40C1
:1018A0000280704702460020012901D0108B00E021
:1018B000908A70470146088A7047B1F5804F04D17D
:1018C000028842F48042028004E002884BF6FF73F3
:1018D0001A40028070470246002013890B400BB16A
:1018E000012000E000207047CA4302817047F0B534
:1018F0000246002000240023002501F00F070126E6
:10190000BE40B4B20B1101269E40B3B2968806EADF
:1019100003051689264016B10DB1012000E0002014
:10192000F0BD10B5002201F00F040123A3409AB2CC
:10193000D343038110BD0000003001400038004057
:10194000003C004010B50446FE48844208D1012105
:10195000C014FEF729FF0021E014FEF725FFC4E0C4
:10196000B4F1804F08D101210846FEF72AFF00217B
:101970000120FEF726FFB8E0F348844208D1012198
:101980000220FEF71EFF00210220FEF71AFFACE046
:10199000EE48844208D101210420FEF712FF002105
:1019A0000420FEF70EFFA0E0E948844208D101219F
:1019B0000820FEF706FF00210820FEF702FF94E052
:1019C000E448844208D101211020FEF7FAFE0021EC
:1019D0001020FEF7F6FE88E0DF48844208D101219E
:1019E0002020FEF7EEFE00212020FEF7EAFE7CE03C
:1019F000DA48844208D101214014FEF7D5FE0021C7
:101A00006014FEF7D1FE70E0D548844209D101216F
:101A1000C804FEF7C9FE00214FF40020FEF7C4FE03
:101A200063E0D048844209D101210805FEF7BCFEDD
:101A300000214FF48010FEF7B7FE56E0CA488442FA
:101A400009D101214805FEF7AFFE00214FF4001037
:101A5000FEF7AAFE49E0C548844208D10121402092
:101A6000FEF7AFFE00214020FEF7ABFE3DE0C04890
:101A7000844208D101218020FEF7A3FE00218020AE
:101A8000FEF79FFE31E0BB48844208D1012180155A
:101A9000FEF797FE0021A015FEF793FE25E0B6485D
:101AA000844209D101210804FEF77EFE00214FF493
:101AB0008030FEF779FE18E0B048844209D1012158
:101AC0004804FEF771FE00214FF40030FEF76CFE73
:101AD0000BE0AB48844208D101218804FEF764FE84
:101AE00000214FF48020FEF75FFE10BD0022028827
:101AF000944B98420ED0994B98420BD0B0F1804F46
:101B000008D0914B984205D0904B984202D0904B10
:101B1000984204D14FF68F731A404B881A438D4B6D
:101B2000984207D08C4B984204D04FF6FF431A409E
:101B3000CB881A4302808B8883850B880385814B71
:101B400098420BD0854B984208D08B4B984205D0D9
:101B50008A4B984202D08A4B984201D10B7A038675
:101B600001238382704770B5002400220023058C76
:101B70004FF6FE7635400584028C8388048B4FF641
:101B80008F752C40B51E2C400D882C43751E2A40A5
:101B90000D892A434D882A436A4DA8420BD06F4DC8
:101BA000A84208D0744DA84205D0744DA84202D076
:101BB000734DA84213D14FF6F7752A404D892A4339
:101BC0004FF6FB752A408D882A434FF6FF652B4060
:101BD0004FF6FF552B408D892B43CD892B438380B6
:101BE0000483CD888586028470BD70B500240022F0
:101BF0000023058C4FF6EF7635400584028C8388F0
:101C0000048B48F6FF752C404FF6FF452C400D889D
:101C10004FF6FF7606EA05252C434FF6DF752A407E
:101C20000D8906EA05152A434D8806EA05152A435B
:101C3000444DA84202D0494DA8421DD14FF67F75B0
:101C40002A404D894FF6FF7606EA05152A434FF6DE
:101C5000BF752A408D8806EA05152A434FF6FF35E1
:101C60002B404FF2FF752B408D8906EA85052B43EB
:101C7000CD8906EA85052B4383800483CD880587BB
:101C8000028470BD70B5002400220023058C4FF63D
:101C9000FF6635400584028C8388848B4FF68F75F0
:101CA0002C404FF6FC752C400D882C434FF6FF5509
:101CB0002A400D894FF6FF7606EA05252A434D880E
:101CC00006EA05252A431F4DA84202D0234DA8420B
:101CD0001DD14FF2FF752A404D894FF6FF7606EA77
:101CE00005252A434FF6FF352A408D8806EA05254B
:101CF0002A434EF6FF752B404DF6FF752B408D891C
:101D000006EA05152B43CD8906EA05152B4383808A
:101D10008483CD888587028470BD70B5002200233E
:101D20000024058C4EF6FF7635400584038C8488AC
:101D3000828B48F6FF752A404FF6FF452A400D88F2
:101D400020E00000002C014000040040000800409A
:101D5000000C00400010004000140040003401401E
:101D6000004C014000500140005401400018004068
:101D7000001C0040002000400040014000440140A1
:101D8000004801404FF6FF7606EA05252A434DF646
:101D9000FF752B400D8906EA05352B434D8806EA71
:101DA00005352B43FA4DA84202D0FA4DA84208D17E
:101DB0004BF6FF752C408D894FF6FF7606EA8515A8
:101DC0002C4384808283CD88A0F84050038470BD6A
:101DD000828B4FF2FF331A408283828B4FF6FF7360
:101DE00003EA01231A4382837047F0B50C46154677
:101DF000002200210026078C4EF6FF7C07EA0C0724
:101E00000784828B018C4FF6FF7707EA043640F691
:101E1000FF473A404FF6FF7707EA05273A434FF668
:101E2000FF7707EA03373A43D94FB8420ED0D94F6C
:101E3000B8420BD0B0F1804F08D0D74FB84205D090
:101E4000D64FB84202D0D64FB84206D14DF6FF77F2
:101E5000394046F48057394305E047F6FF5739408B
:101E600044F48057394382830184F0BD828B4FF65E
:101E7000F3731A408283828B0A4382837047F0B5E2
:101E80000C461546002200210026078C4FF6FF6CF9
:101E900007EA0C070784828B018C4FF6FF7707EA6D
:101EA00004264FF60C773A404FF6FF7707EA031700
:101EB0002F433A43B64FB8420ED0B64FB8420BD07C
:101EC000B0F1804F08D0B44FB84205D0B34FB842FC
:101ED00002D0B34FB84206D14FF6FF57394046F40F
:101EE0008077394305E04FF2FF57394044F480775B
:101EF000394382830184F0BD028B4FF2FF331A40D5
:101F00000283028B4FF6FF7303EA01231A43028315
:101F10007047F0B50C461546002200210026078CBC
:101F20004FF6EF7C07EA0C070784028B018C4FF613
:101F3000FF7707EA041640F6FF473A404FF6FF776F
:101F400007EA03373A434FF6FF7707EA05273A4394
:101F50008F4FB8420ED08F4FB8420BD0B0F1804FA8
:101F600008D08D4FB84205D08C4FB84202D08C4F6C
:101F7000B84206D14FF6DF77394046F010073943B3
:101F800005E04FF65F77394044F01007394302838C
:101F90000184F0BD028B4FF6F3731A400283028B6B
:101FA0000A4302837047F0B50C4615460022002113
:101FB000068C4FF6FE773E400684028B018C4FF66E
:101FC0000C7632407E1C06EA03162E433243704ED6
:101FD000B0420ED06F4EB0420BD0B0F1804F08D05F
:101FE0006D4EB04205D06D4EB04202D06C4EB04244
:101FF00006D14FF6FD76314044F00106314305E04D
:102000004FF6F576314044F00106314302830184F6
:10201000F0BD70B505460C465D4885420ED05D4862
:1020200085420BD0B5F1804F08D05B48854205D082
:102030005A48854202D05A48854200D100E000BF8C
:10204000208850B92389A28861882846FFF7ABFF12
:10205000E1882846FFF79EFF25E0208804280AD162
:102060002389A28861882846FFF753FFE188284624
:10207000FFF742FF17E0208808280AD12389A288A9
:1020800061882846FFF7FBFEE1882846FFF7EEFE51
:1020900009E02389A28861882846FFF7A6FEE18827
:1020A0002846FFF795FE70BD2DE9F04105460C4628
:1020B00000260127608808B9022600E00026A088D3
:1020C000012801D1022700E001272088A0B9238937
:1020D000A28861882846FFF766FFE1882846FFF757
:1020E00059FF23893A4631462846FFF712FFE18817
:1020F0002846FFF701FF13E02389A288618828465C
:10210000FFF707FFE1882846FFF7F6FE23893A46E6
:1021100031462846FFF747FFE1882846FFF73AFF98
:10212000BDE8F0810A884B881A438B881A43CB8814
:102130001A430B891A434B891A438B891A43A0F817
:10214000442070474FF6FF71818000210180C180DB
:102150004180017270470021018041808180C180EF
:10216000018141818181C1817047002101804180CD
:10217000012181800021C1800181704700210180FF
:1021800041808180C180018141818181704700004F
:10219000002C0140003401400004004000080040D1
:1021A000000C004021B1028842F00102028004E0EC
:1021B00002884FF6FE731A400280704731B1B0F8C2
:1021C000442042F40042A0F8442005E0B0F8442046
:1021D000C2F30E02A0F8442070471AB183890B4362
:1021E000838102E083898B438381704781827047BA
:1021F00041EA0203A0F8483070471AB183890B43C3
:10220000838102E083898B438381704701894FF684
:10221000F8721140018170470A46002101894FF68A
:102220008F73194011430181704730B504460D4644
:1022300029462046FFF7F0FF208940F00700208163
:1022400030BD2DE9F04104460D4616461F46602D6F
:1022500006D13B46012231462046FFF75AFE05E0F3
:102260003B46012231462046FFF79DFE2946204687
:10227000FFF7D2FF208940F007002081BDE8F08100
:1022800030B50C4600210189C9B24FF6FF7505EA49
:102290000325154325432943018130BD2DE9F04134
:1022A00005460E4617469846002443463A463146B0
:1022B0002846FFF7E5FF2C894FF6F870044044F0FC
:1022C00007044FF68F70044044F070042C81BDE881
:1022D000F081F0B504460D4616461F463B46324691
:1022E00029462046FFF7CCFF208940F4804020811A
:1022F000F0BD0185828270470A46002101884FF6B1
:102300008F731940114301807047F0B50C46154694
:102310001E460021002200230189028B038C4FF608
:10232000F877394021434FF6FC473A4040F2011715
:102330003A434FF6DD773B404FF6FF7707EA061743
:102340002F433B43018102830384F0BD0A460021F1
:10235000018B4FF68F7319401143018370470A4672
:102360000021018B48F6FF7319404FF6FF7303EA13
:1023700002231943018370470A460021818B4FF6DF
:102380008F7319401143818370470A460021818B66
:1023900048F6FF7319404FF6FF7303EA022319430F
:1023A0008183704721B1028842F08002028004E0FC
:1023B00002884FF67F731A400280704721B18288ED
:1023C00042F00402828004E082884FF6FB731A40D8
:1023D0008280704721B1828842F00802828004E046
:1023E00082884FF6F7731A408280704721B1828845
:1023F00042F00102828004E082884FF6FE731A40A8
:10240000828070470A460021018B4FF6F77319400E
:102410001143018370470A460021018B4FF2FF737D
:1024200019404FF6FF7303EA0223194301837047F3
:102430000A460021818B4FF6F773194011438183BF
:1024400070470A460021818B4FF2FF7319404FF607
:10245000FF7303EA02231943818370470A46002170
:10246000018B4FF6FB7319401143018370470A46F5
:102470000021018B4FF6FF3319404FF6FF7303EA3B
:1024800002231943018370470A460021818B4FF6CE
:10249000FB7319401143818370470A460021818BE9
:1024A0004FF6FF3319404FF6FF7303EA0223194337
:1024B000818370470A460021018B4FF67F731940D4
:1024C0001143018370470A460021018BC1F30E01BD
:1024D0004FF6FF7303EA02231943018370470A464C
:1024E0000021818B4FF67F73194011438183704720
:1024F0000A460021818BC1F30E014FF6FF7303EAF8
:1025000002231943818370470A460021018C4FF64C
:10251000FD7319401143018470470A460021018C64
:102520004FF6F77319401143018470470A460021A2
:10253000018C4FF6DF7319404FF6FF7303EA021365
:102540001943018470470A460021018C4FF67F73BE
:1025500019404FF6FF7303EA0213194301847047D1
:102560000A460021018C4FF6FF5319404FF6FF73C6
:1025700003EA02231943018470470A460021018CB3
:102580004FF2FF7319404FF6FF7303EA022319431A
:10259000018470470A460021018C4DF6FF731940F3
:1025A0004FF6FF7303EA023319430184704730B5D5
:1025B000002301248C40A3B2048C9C430484048C2B
:1025C00002FA01F5ADB22C43048430BD30B50023CE
:1025D00004248C40A3B2048C9C430484048C02FA2F
:1025E00001F5ADB22C43048430BD70B50346002024
:1025F00000241846183001258D40ACB21D8CA5432F
:102600001D8409B1082909D100EB6100056825F096
:10261000700505600568154305600EE00D1FC5F3E4
:102620004E052844056825F4E045056005684FF629
:10263000FF7606EA02263543056070BD21B10288A7
:1026400042F00202028004E002884FF6FD731A4055
:102650000280704721B1028842F00402028004E047
:1026600002884FF6FB731A400280704721B18288BE
:1026700042F08002828004E082884FF67F731A4025
:102680008280704702884FF6F7731A4002800288F2
:102690000A430280704782884FF68F731A40828007
:1026A00082880A438280704702894FF6F8731A4085
:1026B000028102890A430281704702894FF67F73C3
:1026C0001A40028102890A4302817047818470475F
:1026D0008185704781867047018770478187704781
:1026E000A0F84010704702884FF6FF431A4002805E
:1026F00002880A43028070470146888E704701466F
:10270000088F70470146888F70470146B1F8400036
:1027100070470146888C70470146088D7047024615
:102720000020138A0B400BB1012000E0002070470D
:10273000CA430282704730B50246002000230024BD
:10274000158A05EA0103958905EA010413B10CB164
:10275000012000E0002030BDCA4302827047000023
:10276000002044490860091D0860091D0860091D12
:10277000086041483F4914310860704700213D49D5
:102780008279002A3AD00A46126803689A430B46B7
:102790001A600A1D126803689A430B1D1A600279B9
:1027A00011440A6803681A430A60324A0832126800
:1027B00003689A432F4B08331A601A1D1268036886
:1027C0009A432C4B0C331A604279102A0ED11A1FEF
:1027D000126803681A43274B08331A601A1D1268DF
:1027E00003681A43234B0C331A600DE021494279E8
:1027F00011440A6803681A430A6005E0027911442B
:102800000A6803689A430A607047002101600171F9
:102810000C214171002181717047164910310968FE
:102820000143144A10321160704701460020114ADA
:10283000143212680A400AB1012000E000207047FB
:102840000C49143108607047014600200022094BF2
:102850001B6803EA0102074B14331B680B4013B1DA
:102860000AB1012000E000207047024914310860DD
:102870007047000000040140FFFF0F000948804737
:1028800009480047FEE7FEE7FEE7FEE7FEE7FEE752
:10289000FEE7FEE7FEE7FEE704480549054A064B6A
:1028A000704700009703000831010008C06600204F
:1028B000C06C0020C0680020C0680020014600BF36
:1028C00070474AF6AA20F9490860704710B5002100
:1028D0004FF00060FDF7E9FF4FF4C060FDF7AEFF79
:1028E0002720F34908700020487001208870C870C4
:1028F0000846FDF7A8FF2620ED4908700020487023
:10290000022088700120C8700846FDF79CFF252032
:10291000E749087000204870032088700120C870C3
:102920000846FDF790FF3420E14908700020487008
:1029300088700120C8700846FDF785FF0320DC4938
:10294000087001204870002088700120C870084677
:10295000FDF779FF10BD704710B54FF08040FEF7CE
:10296000F1FF40F6FF70D349888000200880C880BE
:10297000087248804FF08040FFF7B8F87020CE49C9
:1029800008800120488000208880C88002200881BB
:10299000002048814FF4807088810020C8814FF06A
:1029A0008040FFF722F901218807FFF7FBFB012098
:1029B000C0498880472008800020C88010204880B7
:1029C000BE48FFF793F810BD08B50121BC48FEF7DB
:1029D000D4F84FF44240ADF8000003208DF8020017
:1029E00014208DF803006946B648FDF7F5FF4FF453
:1029F0007470ADF8000003208DF8020014208DF8EB
:102A000003006946B048FDF7E7FF49F28010ADF8D2
:102A1000000003208DF8020014208DF803006946A1
:102A2000AA48FDF7D9FF02208DF802000420ADF876
:102A3000000014208DF803006946A348FDF7CCFF81
:102A40000120ADF8000002208DF8020010208DF862
:102A5000030069469B48FDF7BFFF01209C490860C1
:102A60003020ADF8000002208DF8020004208DF81F
:102A7000030069469548FDF7AFFF8220ADF80000DE
:102A800002208DF8020004208DF8030069468D486D
:102A9000FDF7A2FF2020ADF8000002208DF8020013
:102AA00004208DF8030069468748FDF795FF46F23C
:102AB0000800ADF8000002208DF8020004208DF817
:102AC000030069468048FDF787FF0320ADF800004A
:102AD0008DF8020010208DF8030069467B48FDF751
:102AE0007BFF0420ADF800008DF8030003208DF873
:102AF000020069467748FDF76FFF4020ADF80000FF
:102B000004208DF8030003208DF8020069466F4809
:102B1000FDF762FF4FF44050ADF8000010208DF833
:102B2000030003208DF8020069466648FDF754FF54
:102B30004FF480516348FDF7FCFF4FF400516148AA
:102B4000FDF7F9FF4FF41040ADF8000010208DF8AC
:102B5000030002208DF8020069465B48FDF73CFF48
:102B60004FF40060ADF8000010208DF80300032042
:102B70008DF8020069465548FDF72EFF4FF40041DD
:102B80005148FDF7D6FF4FF480514F48FDF7D1FF74
:102B90004FF400614D48FDF7CCFF4FF48070ADF865
:102BA000000004208DF8030003208DF80200694620
:102BB0004448FDF711FF0120ADF8000002208DF818
:102BC000020010208DF8030069463F48FDF704FF1E
:102BD00001213D48FDF7AFFF0220ADF800008DF860
:102BE000020010208DF8030069463748FDF7F4FE17
:102BF00002213548FDF79FFF3820ADF80000032083
:102C00008DF8020018208DF8030069462D48FDF765
:102C1000E3FE4020ADF8000003208DF802001020F4
:102C20008DF8030069462748FDF7D6FE4021254868
:102C3000FDF77FFF08BD10B501213D20FDF79AFD8E
:102C400001218803FDF796FD01214804FDF79FFD52
:102C500001218804FDF79BFD0121C804FDF797FDC4
:102C600001210846FDF793FD01210220FDF78FFDAC
:102C700001210846FDF771FD01214802FDF77AFDAB
:102C80000121C803FDF783FD10BD014648F6A040B1
:102C900005E000E0401E0028FCD148F6A0400A1ED6
:102CA000A1F1010399B2F4D1704700000030004057
:102CB000EC000020462500205025002000040040A4
:102CC00000023000000C01400010014000080140EB
:102CD00080812142001401404FF42F70FFF7D5FF8F
:102CE000FFF7A9FFFFF770FE4FF49670FFF7CDFFD7
:102CF000FFF7A1FFFFF768FEBA49481EB0F1807FD9
:102D000000D31BE0481E4FF0E02250615017012213
:102D1000002807DA13071D0EB34B00F00F04241F21
:102D20001D5503E013071C0EB04B1C5400BF0020C0
:102D30004FF0E02290610720106100BFFFF70CFE0A
:102D40000AF04EFC28F0ECFC00F07AF900F0B6F93D
:102D500000F0E3FAFFF7FFFD01F0ABFB03F0DBF857
:102D600003F0D1FE09F035FA25F0FDFF25F060FAF9
:102D7000FFF7ACFD28F0D4FC4FF400619C48FDF750
:102D8000D8FE26F049F99B49086009680868804721
:102D900098490968886880470AF008FE01F091FAAE
:102DA0000120954908704FF4487024F0B0F923F0E1
:102DB000D3FF00F041F90020904988844FF47A70E5
:102DC0008F4908808D48C088012804D14FF4FA70DB
:102DD0008C49088010E08948C08868B98748408DD0
:102DE000012803D1C8208749088005E08348408D29
:102DF00010B900208349088002218348FDF799FE1D
:102E0000012082490870A5E000F087FA01F0C4F8BB
:102E100000F0C7FB00F0FDF900F09FFB01F0DBF9CB
:102E20007648623000F0704000F100707349623102
:102E3000C1F3130100EB4110406A08B102F088F9B8
:102E400001F05BFB01F0C2FE03F0E1FD03F06EF860
:102E500003F0FEFA07F030FD05F062FE06F06DFFAC
:102E60000AF05EF809F0CDF909F0A8FD0AF059F86A
:102E70000AF076F86148808CE0B96048203000F0B4
:102E8000704000F100705D492031C1F3130100EB87
:102E90004110006870B15948C088012806D10CF073
:102EA000EAF85648008A08B90DF0E9FA0AF0C0FDC0
:102EB0000BF003FF5148808C012801D10DF06FFA0F
:102EC0000DF04EF9FFF7FDFC5148008C012802DBA4
:102ED00001F075FA00E000BF4E48007820B90EF00E
:102EE00056FC01204B4908704A480078012831D12E
:102EF00020F047FD23F02EFA4048223000F07040C9
:102F000000F100703D492231C1F3130100EB411083
:102F10000068F8B140480078032803DB3E48007899
:102F20001B2802DB08F0DFFD0EE03C48007848B9C2
:102F30003B48007830B93B48007818B93A480088D7
:102F4000642801DB08F0CFFD38480078022801D161
:102F500003F0A8FE58E745F25552354B1A601A4661
:102F6000506091604AF6AA221A604CF6CC421A6070
:102F700070477047704731B5BDF8004001212D48BA
:102F8000FFF710F921462B48FFF7A0FB03E0294883
:102F9000FFF7BFFB0446012CF9DC00212548FFF7B1
:102FA00001F938BD31B5002405E04FF47A70FFF720
:102FB000E2FF601C84B2BDF800008442F5DB38BD3E
:102FC00031B5002405E04FF47A70FFF7D4FF601CA0
:102FD00084B2BDF800008442F5DB38BDC2684A40C7
:102FE000C26070474019010018ED00E000E400E005
:102FF00000080140D402002042010020FA11002004
:103000004403002042030020001001402F03002051
:1030100036080020F0000020B9010020BA0100208D
:10302000BD01002089020020B60100209F01002080
:103030000030004000040040704701467047704770
:1030400040F21220F649A1F8900040F2E970A1F890
:103050009200CD20A1F894006D20A1F882000020FC
:10306000F04908804FF47A70EF49A1F85A01EF490E
:103070000880EF490880EF490880EF490880012067
:10308000EE4908800020EE49C884A1F87600A1F836
:10309000C600A1F81601EB490870EB490870EB492E
:1030A0000870EB490870EB490870EB490870EB4970
:1030B0000870EB490870EB490870704710B50AF0CA
:1030C000B3FA64220021D6480AF04DFC0AF0ACFAAB
:1030D0004FF490724FF48071E3480AF044FCD048FA
:1030E000C08FCF49A1F866000846B0F84800DF4914
:1030F0004843DF490860CA4890F84A0040B2087166
:10310000C74890F84C004871C54890F84E00887147
:10311000C34890F85000C871C148B0F8520008B1D7
:10312000012000E00020D2490872BD48B0F85400E8
:1031300008B1012000E00020CD494872B848B0F83D
:10314000560008B1012000E00020C9498872B44847
:10315000B0F8580008B1012000E00020C449C8724E
:10316000AF4890F85A000873AD48B0F85E000861A7
:10317000AB48B0F860004861A94890F85C00087658
:10318000A748808ABB49A1F85002A548C08AA1F887
:103190005202A348008BA1F85402A148408BA1F829
:1031A000560210BD2DE9F04105460C461646FDF7C6
:1031B00084FF3520FEF71CFA2846FDF7C3FF0027E1
:1031C00008E034F8028B2846AD1C4146FEF7BDF8F6
:1031D000781C87B2B742F4DBFDF77BFFBDE8F081D6
:1031E00010B5002305E031F8024B20F8024B5C1CBF
:1031F000A3B29342F7DB10BD30B51346002405E0BF
:1032000011F8012B00F8012B651CACB29C42F7DBD6
:1032100030BD10B59848007801281ED19748007835
:10322000D8B900207E49A1F870000AF0FDF96422A7
:1032300000217B480AF077FB4FF490724FF48071C5
:1032400089480AF070FB11207549A1F8700001202F
:103250008A4908700020884908707148B0F87000E9
:1032600041F28831884203D08248408A88421CD18A
:1032700082480078C8B900206949A1F870000AF0B6
:10328000D3F96422002166480AF04DFB4FF4907296
:103290004FF4807174480AF046FB41F2883060496F
:1032A000A1F870000120754908707548407875498B
:1032B0000978884230D07148007868B37048407807
:1032C0007049087070480088401C6F4908800846A3
:1032D000008896280CDD69480078012808D1022072
:1032E0006649087041F270704D49A1F8700013E012
:1032F00065480088B0F5967F0EDD604800780228AA
:103300000AD164205F49087000205F4908805B494A
:1033100008704349A1F8700010BD2DE9FF47002552
:103320003F48B0F87000B0F5FA6F0BD13C48B0F8E8
:10333000720041F2E101884204D15448007808B992
:10334000012533E03648C088B0F5FA6F0CDD34480B
:103350008088B0F5FA6F07DD4C48007820B9022567
:1033600001204549087021E02D48C08890B92C48BB
:10337000808878B92A48B0F84E0058B92848B0F883
:10338000500038B94148007820B9032501203A4956
:1033900008700BE02248C08FB0F5614F06DD3B4856
:1033A000007818B90425012033490870002D36DD56
:1033B000002407E004F122002B49085C0DF804000A
:1033C000601CC4B20B2CF5DB4FF4907230492648D8
:1033D000FFF712FF002407E01DF8041004F122009B
:1033E000214A1154601CC4B20B2CF5DB0C48068D2D
:1033F000478DB0F82C80B0F8129032222549FFF7A3
:10340000EFFE074806854785A0F82C80A0F81290AB
:10341000012D41D140F2DF300149488749E064E0A5
:10342000FA110020060100204E0400205200002066
:103430005400002056000020580000201E010020EB
:103440004A15002092000020BC000020BD00002092
:10345000BE000020BF000020C0000020C1000020EE
:10346000C2000020C30000202A14002040420F00A8
:10347000F003002036080020020100200001002097
:1034800034040020FD000020FE000020FC0000208D
:1034900062F50208FEF20208022D04D14FF47870A2
:1034A000FE49488705E0032D03D140F2E130FB4996
:1034B00048870025FA48007860B94FF4FA60F74968
:1034C000A1F8700041F2E100A1F872000120F54975
:1034D000087009E00020F44908704FF47A70EF4951
:1034E000A1F87200FFF795FE00BFF0488078F04920
:1034F000097888422FD0EB48007860B3EB48807899
:10350000EB490870EB480088401CEA4908800846EF
:10351000008802280CDDE3480078012808D1022049
:10352000E049087041F27070DC49A1F8720012E0C5
:10353000E048008804280EDDDA48007802280AD125
:103540006420DB4908700020DA490880D5490870FA
:10355000D249A1F87200BDE8FF87D048B0F87000EA
:10356000B0F5FA6F1CD1D1488078D34909788842E8
:1035700016D0CE488078D0490870D0480088401CCA
:10358000CE49088008460088B0F5617F08DD6420D8
:10359000C94908700020C94908800120C049087045
:1035A00070472DE9FE4FBD48B0F84C000A281AD2EA
:1035B000DFE800F00507090B0D0F11131517C04EBA
:1035C00013E0C04E11E0C04E0FE0C04E0DE0C04E03
:1035D0000BE0C04E09E0C04E07E0C04E05E0C04E13
:1035E00003E0C04E01E0BD4E00BF00BFAB48B0F8E5
:1035F0005000052810D2DFE800F00306080A0C008E
:103600004FF07E570AE0B84F08E0B84F06E0B84FD9
:1036100004E04FF07C5701E0B44F00BF00BF9F496A
:10362000B1F84E002BF09CFC0290314602982BF032
:10363000ABFC394601902BF0A7FC0290974890F81C
:103640004E100120884084B220462BF089FC0146B0
:10365000009002982BF086FBA64901902BF094FC79
:10366000029002982BF05CFC8C49A1F8840001F1D7
:10367000200000F0704000F100702031C1F3130110
:1036800000EB4110406858B100228448223000F01D
:10369000704101F10071C0F3130001EB4010426072
:1036A0007E48223000F0704000F100707B492231EA
:1036B000C1F3130100EB4110806868B10022774824
:1036C000223000F0704000F1007074492231C1F3E3
:1036D000130100EB4110C2607048C088E8BB864807
:1036E00000886E49A1F8B0008348408DA1F8B2006F
:1036F0008148008CA1F8B4007F48008EA1F8B60084
:103700007D48C08DA1F8B8007B48408FA1F8C20069
:103710007948808FA1F8BA007748B0F84000A1F846
:10372000BC007548B0F86A00A1F8BE007248B0F855
:103730006C00A1F8C0007148B0F8B400A1F8000115
:103740006E48B0F8B600A1F802016C48B0F8B000BD
:10375000A1F804016948808D00E009E0A1F80601A4
:103760006648008EA1F808010846408AA1F80A01BF
:103770006348008800281CDD0120624908604B482E
:10378000407861490978884213D0484840785E49BA
:1037900008705B480088401C59490880084600882A
:1037A00042F6E061884204DD002055490880554911
:1037B00008604FF0000900240EE004F18000534936
:1037C00011F800805248005D404503DB09F101001B
:1037D0001FFA80F9601C84B2042CEEDB4FF0000A63
:1037E000002409E04B48005D0A2803DB0AF10100D0
:1037F0001FFA80FA601C84B2042CF3DB27482230C5
:1038000000F0704000F1007024492231C1F313012F
:1038100000EB4110406870B92048223000F0704041
:1038200000F100701D492231C1F3130100EB41107A
:10383000C068002830D03848008800F00400E8B1A3
:1038400036480078364909780844364909780844EA
:1038500035490978084435490978084434490978D4
:1038600008444844504433490978084432490978A7
:10387000084432490978084400280EDD0B48807856
:103880002F490978884207D0084880782C49087069
:103890002C480088401C57E09BE09BE0FA11002078
:1038A00002010020FC000020000100203404002060
:1038B000F8000020FA00002001010020040100208F
:1038C0009A99F940666626419A9979416666A641B9
:1038D0009A99F9416666264200007A420000FA424F
:1038E00000007A430000FA43CDCC4C3FABAA2A3FFC
:1038F0002549123F0000C842CE10002036080020A3
:103900001E010020808121421C0100202A14002079
:10391000E4010020060200200C440040C501002004
:10392000C60100206802002084020020C701002098
:10393000C80100205A0200205E020020620200201E
:103940001001002012010020F74908800846008875
:10395000502842DD6420F54908700020F2490880B3
:10396000012240F22551F248FDF75FFAF0480C3091
:10397000008840F00400EE490C3108800020ED4939
:103980000870ED490870ED490870002404E000203B
:10399000EB490855601C84B2042CF8DB002404E0D9
:1039A0000020E8490855601C84B2042CF8DB002094
:1039B000E54908700120E54908700121E448FDF758
:1039C000B8F840F6B83023F0A2FB0121E048FDF73B
:1039D000B2F802E00020D4490880DE4800F07040D0
:1039E00000F10070DB49C1F3130100EB41100068E6
:1039F00030B3D9488078D9490978884220D0D64850
:103A00008078D6490870D6480088401CD449088080
:103A100008460088B0F5966F12DD00200880CA497C
:103A200008700120C94908700121C948FDF781F8D3
:103A300040F6B83023F06BFB0121C548FDF77BF859
:103A4000C448223800884EF66021884228D0C248F7
:103A5000C078C4490988884222D0BF48C078C1498B
:103A60000880C1480088401CBF490880B9482238F6
:103A700000880988884213DC0020BB490880B249CD
:103A800008700120B14908700121B148FDF751F8D3
:103A900040F6B83023F03BFB0121AD48FDF74BF871
:103AA000B24890F8398090F83A0000EB0820A94914
:103AB0002239C887AD4890F83B00A1F84000AB48D8
:103AC00090F83C00A1F84200A84890F83D00A1F809
:103AD0004400A64890F83E00A1F846000846C08F72
:103AE000B1F86610884227D19A482238B0F84000D1
:103AF00098492239B1F8681088421DD1954822387A
:103B0000B0F8420093492239B1F86A10884213D1C3
:103B100090482238B0F844008E492239B1F86C1030
:103B2000884209D18B482238B0F8460089492239A9
:103B3000B1F86E1088421CD086482238C08F854963
:103B40002239A1F866000846B0F84000A1F86800E4
:103B50000846B0F84200A1F86A000846B0F84400F0
:103B6000A1F86C000846B0F84600A1F86E0002F01B
:103B700039F97F480088B0F5967F1ADD75482238FC
:103B8000B0F88000082805DB72482238B0F88000C1
:103B900063280ED10020764908807648006820B15D
:103BA000002074498031086003E0012071498031B0
:103BB000086066480078112819DA01206E4908600B
:103BC0006E480088B0F5967F21DD00206B490880A3
:103BD00069488C380068012804D1002066490C39F6
:103BE000086014E0012064490C3908600FE0574870
:103BF000007811280BDB554800781B2807DA0020D5
:103C00005C498031086001205D49C1F8B0014F482E
:103C100000781B287BDB5B4800785A4949780844C8
:103C20005849897808445749C978084490B9534895
:103C3000008832285ADD0020504908804E488038DC
:103C4000006818B100204C4908604FE001204A4943
:103C500008604BE04FF0000B002411E0482000EB1F
:103C600084004249095CC4EB44109D303F4A105C1B
:103C7000084418B10BF1010000F0FF0B601C84B286
:103C8000042CEBDB404800783F49497808443E4922
:103C9000897808443C49C9780844584513D13748C5
:103CA0000088B0F57A7F21DD002034490880324851
:103CB0008038006818B100202F49086016E0012004
:103CC0002D49086012E02D480088B0F5967F0DDD83
:103CD00000202A49088028488038006818B1002050
:103CE0002549086002E00120234908602748008830
:103CF000274909880844002805DD4FF480511448FD
:103D0000FFF76CF903E001201B490C3908602148DA
:103D10000088214909880844002841DD20211F48E6
:103D2000FFF75CF93FE000001201002010010020C5
:103D300000440040C5010020C601002068020020A8
:103D4000E4010020060200206A020020B9010020E0
:103D5000001001401C120020340400201801002033
:103D60001A01002024010020260100202A1400202E
:103D70000E0100202C012142BC012242080100203A
:103D8000000022422F020020410200208A01002070
:103D90008C010020A2010020A40100200014014099
:103DA0000120FE490860FE484078FE4909788842B3
:103DB00023D0FD480068B8B9F9484078F94908703F
:103DC000FA480088401CF949088008460088B0F588
:103DD000FA6F12DD002008800120F549087040F6D6
:103DE000B83023F094F908E0F0480088002804DD9A
:103DF000EE480088401EED490880EE48808F05B2ED
:103E0000002D0DDA6842EB49A1F83C050846B0F8F0
:103E10003C0542F210710844E649A1F83C0504E073
:103E2000E448808FE349A1F83C05E248C08F05B221
:103E3000002D0DDA6842DF49A1F83E050846B0F8CA
:103E40003E0542F210710844DA49A1F83E0504E04B
:103E5000D848C08FD749A1F83E05D648B0F88C00A5
:103E600005B2002D0DDA6842D249A1F84005084696
:103E7000B0F8400542F210710844CE49A1F840055F
:103E800005E0CC48B0F88C00CA49A1F84005C94803
:103E9000B0F88E0005B2002D0DDA6842C549A1F8D0
:103EA00042050846B0F8420542F210710844C14983
:103EB000A1F8420505E0BF48B0F88E00BD49A1F861
:103EC0004205BC48B0F8DC0005B2002D0DDA6842AE
:103ED000B849A1F844050846B0F8440542F210710B
:103EE0000844B449A1F8440505E0B248B0F8DC0044
:103EF000B049A1F84405AF48B0F8DE0005B2002D86
:103F00000DDA6842AB49A1F846050846B0F8460507
:103F100042F210710844A749A1F8460505E0A548FA
:103F2000B0F8DE00A349A1F84605A248B0F82C017C
:103F300005B2002D0DDA68429E49A1F848050846F1
:103F4000B0F8480542F2107108449A49A1F84805B2
:103F500005E09848B0F82C019649A1F84805954825
:103F6000B0F82E0105B2002D0DDA68429149A1F892
:103F70004A050846B0F84A0542F2107108448D49D6
:103F8000A1F84A0505E08B48B0F82E018949A1F84F
:103F90004A05BDE8FE8F70478748C08FB0F5166FA1
:103FA0001CD08548C08FB0F5965F17D08248C08F6F
:103FB000B0F5165F12D08048C08FB0F5964F0DD087
:103FC0007D48C08FB0F5164F08D07B48C08FB0F544
:103FD000614F03D04FF416507749C8877648008D5B
:103FE000032802DB0020744908857348408D50B1D6
:103FF0007148408D012806D06F48408D022802D0BC
:1040000000206D4948856C48808D032803DA6A4892
:10401000808D012802DA0220674988856648008978
:10402000B0F57A7F02DB002063490881624840894D
:10403000B0F57A7F02DB00205F4948815E488089C5
:10404000B0F57A7F02DB00205B4988815A48C0893D
:10405000B0F57A7F02DB00205749C8815648B0F896
:104060004800892805DB5448B0F84800B0F57F7F48
:1040700004DD4FF4D9705049A1F848004E48B0F81B
:104080004A0014280DD04C48B0F84A00072804DB39
:104090004948B0F84A000E2803DD14204649A1F82B
:1040A0004A004548B0F84C00092803DD0720424982
:1040B000A1F84C004048B0F84E00062804DB3E480A
:1040C000B0F84E000C2803DD07203B49A1F84E0054
:1040D0003948B0F85000012804DB3748B0F85000E8
:1040E000042803DD02203449A1F850003248B0F81A
:1040F0005200012803DD01202F49A1F852002E486B
:10410000B0F85400012803DD00202B49A1F8540029
:104110002948B0F85600012803DD00202649A1F8FF
:1041200056002548B0F85800012803DD0020224938
:10413000A1F858002048B0F85E000A2806DB1E48A7
:10414000B0F85E0041F27071884204DD4FF47A707D
:104150001949A1F85E001848B0F860000A2806DB8B
:104160001548B0F8600041F27071884204DD4FF4E8
:104170007A701149A1F860000F48C088012802DD5B
:1041800000200D49C8800C48C08801281AD00A4870
:10419000C088B8B90848808803280FE0948122427B
:1041A000340400200A010020300122420C010020CA
:1041B000B90100204A150020FA11002002DA03207C
:1041C0008D4988808C480088052803DA4FF4F07008
:1041D000894908807047894880783C283DDB002069
:1041E000864988700846C078401CC8700846C07868
:1041F000814988868148C0783C282EDB00207F4991
:10420000C87008460079401C0871084600797A4950
:10421000C8867A48007918281FDB00207749087182
:1042200008464079401C4871084640797249088721
:10423000724840791E2810DD0120704948710846F7
:104240008079401C8871084680790C2805DD0120A2
:1042500088710846C079401CC871684880786649F2
:1042600048866648C078888664480079C886704762
:10427000634A1268127803781A440379D21A037ACF
:104280001A440A705E4A1268527843781A40437999
:104290005A40437A1A434A70827883795A40837A23
:1042A0005A40574B1B689B781A438A70544A1268CD
:1042B000D278C378D21AC3791A44C37A1A40CA7022
:1042C000704700B54F4850490860504800688078F2
:1042D0004F4908704D480068C07848704B480068E6
:1042E0008079887049480068C079C870474800687C
:1042F0000079087145480068407948714348006872
:10430000807A887141480068C07AC8713F48006867
:10431000007808723D480068407848723B48006861
:10432000007A887239480068407AC872394938483A
:10433000FFF79EFF374800783749096809788842B7
:1043400018D134484078344909684978884211D1F5
:104350003048807830490968897888420AD12D48E8
:10436000C0782D490968C978884203D101202B49BA
:10437000087002E000202949087000BDF8B5044625
:104380000D466E460020264908800C21204600F08C
:104390009BF8009030782870707868701848006832
:1043A0008078A178484061784840A8701448006837
:1043B000C078E178484021784840E870F8BD7047FF
:1043C0002DE9F0470446894620121649C8708C70C2
:1043D0004FEA2920487081F8009008682AF034FCE0
:1043E00007460022104B2AF0C5F805462AF02EF8A1
:1043F00082465046BDE8F087FA11002034040020C0
:104400003C010020FF001100340100202C0100209D
:1044100060250020380100203001002042010020EA
:1044200040010020280100200000244008B54FF47E
:104430000070ADF8000003208DF8020018208DF800
:1044400003006946FE48FCF7C7FA4FF48060ADF8F8
:10445000000003208DF8020004208DF80300694657
:10446000F748FCF7B9FA08BD1FB5F648FCF702FC9F
:104470006846FCF7ABFCF448C08F00900020ADF814
:104480000400ADF80600ADF80800ADF80C000C20F3
:10449000ADF80A006946EB48FCF72FFC012240F218
:1044A0002551E848FCF7C1FC0121E648FCF7B1FCC6
:1044B0001FBD10B5FFF7BAFFFFF7D6FF0020E34995
:1044C0000880E349088010BDF0B50246FF23FF24B1
:1044D0000025002009E012F8016B86EA0305DD4E95
:1044E000765D86EA0403DC4E745D0E1EA1F10107C1
:1044F000F9B2F0D144EA0320F0BD2DE9F0410025E6
:10450000D148008A002874D1D1480088002871DD84
:10451000D2480078D249097888426BD0CF480078D9
:10452000CF490870CF480088401CCE490880084613
:1045300000880528EBDD002240F22551C148FCF738
:1045400074FCC3480088C84908800020C549088019
:10455000C5480088B0F5006F70DCC4480078BA49DF
:104560008988884203D0C2480078012867D1BE48B4
:104570000078801EC1B2BD48FFF7A6FF044627128F
:1045800004F0FF08B8480088801EB849085CB842AB
:1045900071D1B5480088401E085C4045F8D10846F6
:1045A0004078032868D1B3488478C07800EB0420B1
:1045B000B1490880AE480078012870D1AF4E084656
:1045C0000088092803D14FF48270088017E1AA48B7
:1045D0000088172804D140F20510A74908800EE191
:1045E000A54800880B2806D14FF48370A2490880A3
:1045F00005E19EE18AE2A04800889C2804D140F2AF
:1046000007109D490880FAE09B4800889D2804D146
:104610004FF4847098490880F1E0974800888E280C
:1046200004D140F2091094490880E8E092480088DB
:10463000012805D1000290490880E0E06EE16BE1BD
:104640008D480088022804D140F201108A49088070
:10465000D5E089480088032804D14FF48170864949
:104660000880CCE084480088042806D140F203107A
:1046700081490880C3E04DE126E17F480088362863
:1046800004D14FF485707C490880B8E07A480088EE
:104690003C2805D140F20B1077490880AFE0B6E026
:1046A00075480088D42804D14FF486707249088078
:1046B000A5E071480088D52804D140F20D106E495C
:1046C00008809CE06C480088DA2804D14FF4877099
:1046D0006949088093E068480088E22804D140F2E4
:1046E0000F10654908808AE063480088E32804D1F8
:1046F0004FF488706049088081E05F480088E428B2
:1047000004D140F211105C49088078E05A480088D2
:10471000E52804D14FF48970574908806FE0564866
:104720000088E62804D140F213105349088066E05F
:1047300051480088E72804D14FF48A704E49088018
:104740005DE04D480088E82804D140F215104A4940
:10475000088054E048480088E92804D14FF48B7061
:10476000454908804BE044480088EA2804D140F2DB
:1047700017104149088042E03F480088EB2804D1E7
:104780004FF48C703C49088039E03B480088EC28A5
:1047900004D140F219103849088030E036480088CA
:1047A000ED2804D14FF48D703349088027E032485A
:1047B0000088EE2804D140F21B102F4908801EE02B
:1047C0002D48008840F2F511884204D14FF48F70D3
:1047D0002949088013E02848008840F28121884256
:1047E00004D140F21F102449088008E022480088C4
:1047F000B0F5207F03D14FF490701F4908801E4808
:10480000008806EB400600201949087087E00E4832
:10481000623000F0704000F100700B496231C1F36A
:10482000130100EB4110406A80B301201449087065
:10483000642014490870002013490880642026E091
:104840000008014000380140FA1100204601002014
:104850004401002062F3020862F4020834040020DC
:104860005F01002060010020480100206C2B002027
:104870006D0100206C2500204C000020360800202F
:1048800084010020760100207801002011E0FE491B
:1048900008700020FD4908806420FD490870002050
:1048A000FC490880FC490870FC490870FC49087004
:1048B00035E00120FB490870FB488478C07800EBA4
:1048C0000420FA4908802AE0F748407806280DD1EC
:1048D0000020F74908800120F6490870F2488478E2
:1048E000C07800EB0420F149088018E0EE484078D9
:1048F00010280DD10020EE4908800120EE490870F3
:10490000E9488478C07800EB0420E849088006E094
:10491000012504E0022502E0032500E00425012230
:1049200040F22551E548FCF780FA0020E449088070
:10493000ECE0E34800880028FADDE2480078E2492C
:1049400009788842F4D0DF480078DF490870DF48F2
:104950000088401CDD490880084600880528E7DDFE
:10496000002240F22551D548FCF75FFAD448008870
:10497000D74908800020D5490880D5480088B0F57F
:10498000006F6FDCC848007802286CD1D0480078EE
:10499000801EC1B2C448FFF797FD0446271204F0F9
:1049A000FF08CB480088801EBF49085CB8427DD113
:1049B000C7480088401E085C404577D108464078CB
:1049C00003287CD1C3488478C07800EB0420C24916
:1049D00008800846008842F21071884205DABF4E0E
:1049E000BD48008806EB40064AE0BB48008842F21A
:1049F000107188420CDBB84800884900884207DA09
:104A0000B74EB5480088A0EB610006EB400637E0E2
:104A1000B148008844F6206188420EDBAE48008829
:104A200047F23051884208DAAE4EAB480088A0F514
:104A30009C40203806EB400622E0A748008847F259
:104A40003051884210DBA448008849F64041884232
:104A50000ADAA54EA0480088A0F5EA40303806EBF7
:104A600040060DE048E045E09B48008849F640419B
:104A7000884205DB9D4E98480088401A06EB4006A8
:104A800000250EE0032000EB450087490C5C042064
:104A900000EB4500085C00EB042026F81500681CBC
:104AA000C5B28149887800EBD07101E020E006E0D2
:104AB000B5EB610FE6DB0A208D4908701DE07A48EE
:104AC0004078062803D10B208949087015E0764804
:104AD0004078102803D10C20854908700DE07248F9
:104AE0004078012802D18349087006E0012504E0DE
:104AF000022502E0032500E00425012240F22551B1
:104B00006E48FCF792F900206D490880002D0EDDFB
:104B1000002404E0002064490855601C84B2142C71
:104B2000F8DB012240F225516448FCF77EF9BDE82C
:104B3000F081014642F21072914204DA6E480A4650
:104B400000EB420041E042F21072914208DB520059
:104B5000914205DA6248A1EB620200EB420034E0C8
:104B600044F6206291420ADB47F23052914206DA63
:104B70005C48A1F59C42203A00EB420025E047F258
:104B8000305291420ADB49F64042914206DA5648D9
:104B9000A1F5EA42303A00EB420016E049F6404205
:104BA00091420ADB4CF25032914206DA4F48A1F5AD
:104BB0001C42403A00EB420007E04CF25032914276
:104BC00003DB46488A1A00EB420070472DE9F84F94
:104BD0004648008A002855D132480078002852D033
:104BE000424800793B4908702F48407848702E4869
:104BF00040794006000E88702B4890F80280C078FB
:104C000000EB08201FFA80FA5046FFF792FF064695
:104C1000DFF8C09000240BE036F81450291209F197
:104C2000030000F8141000EB44004570601CC4B28F
:104C30001D484079A042EFDC26488078C01CC1B2F4
:104C40002448FFF741FC2D490880084600880112DE
:104C500020488078C01C1F4A11542848017810460B
:104C60008078001D115410468078401D244908802A
:104C700000200C49087023490880084602880088F3
:104C8000401C41E0E6E04DE07A0100207C0100207C
:104C90006F010020700100208F0000207E010020A5
:104CA000800100205A0100206C2B00204E010020C2
:104CB000040100205D0100205B010020003801405C
:104CC00044010020340400205F0100206001002026
:104CD000480100206C2500204C0000204E040020DC
:104CE0003608002006100020CE100020FA11002007
:104CF000640100205C0100204A1500204C010020C6
:104D00004A010020460100200B461880FE48815CC5
:104D1000FE48FCF7EBF8012240F22661FB48FCF765
:104D200084F8EEE1FA48007818B9FA4800780028CB
:104D3000F7D0F848007848B3F74890F80280C07878
:104D400000EB08201FFA80FA42F2107082450DDB5A
:104D50005046FFF7EEFE0746EF480579407900EB35
:104D6000052038800120ED4908702FE0EC48A0F8BC
:104D700066A5E9480579407900EB052085B2E84849
:104D8000A0F868550120E74908701FE0E048007866
:104D9000E0B1E1488079022815D1DF488578C078F4
:104DA00000EB052085B2DE48A0F86655DA48C579E3
:104DB000007A00EB052085B2D948A0F8685501209B
:104DC000D849087002E00020D6490870D048007821
:104DD00018B9D04800780028A3D0D3480079CA4930
:104DE0000870CD4840784870CB4880788870CA48B1
:104DF000C078C870C84800790871C74840794871C0
:104E00000621C148FFF760FBC849088008460088B2
:104E10000012BD498871C5480078C8710820C4498E
:104E200008800020BA490870BA490870C149088052
:104E3000084602880088401C0B461880B248815CF6
:104E4000B248FCF753F8012240F22661AF48FBF765
:104E5000ECFF56E1B848007800287DD00220AA492E
:104E60000870AD4840784870AB4840794006000E65
:104E70008870B248008842F21071884205DAB04E5C
:104E8000AE480088AD49088033E0AC48008844F65D
:104E90002061884207DAAB4EA8480088A0EB610089
:104EA000A649088025E0A548008847F2305188428D
:104EB00008DAA54EA1480088A0F59C4020389F49FB
:104EC000088016E09D48008849F64041884208DA8B
:104ED0009E4E9A480088A0F5EA40303897490880ED
:104EE00007E0914E95480088A0F51C404038934952
:104EF0000880DFF8149200240FE09048008806EB49
:104F0000400030F81450291209F1030000F8141081
:104F100000EB44004570601CC4B27F484079A04259
:104F2000EBDC79488078C01CC1B27748FFF7CCFA37
:104F30007E49088008460088011273488078C01CAA
:104F4000714A11547948017810468078001D115437
:104F500010468078401D00E018E075490880002068
:104F60007549087073490880084602880088401C0B
:104F70000B4618806448815C6448FBF7B7FF012248
:104F800040F226616148FBF750FFBAE060480078C4
:104F900018B9604800780028F7D04FF00108B8F140
:104FA000000F65D06548008842F21071884205DA2A
:104FB000634F624800886149088028E05F480088A4
:104FC00044F62061884207DA5E4F5C480088A0EB17
:104FD00061005A4908801AE05848008847F2305169
:104FE000884208DA584F55480088A0F59C40203880
:104FF000524908800BE05148008849F640418842F8
:1050000005DB494F4D480088401A4C49088041480B
:10501000007850B140480579407900EB052085B211
:105020004648008827F8105022E039480078F8B147
:10503000394840795A281BDADFF8DCB0002413E045
:105040000BF1070010F8145000EB4400407800907A
:10505000009800EB052085B23848008807EB400037
:1050600020F81450601CC4B22B484079A042E7DC01
:105070002748007810B927480078E0B30220224979
:105080000870254840784870234880788870224806
:10509000C078C8702048407848701F4840794871EF
:1050A000B8F1000F02D1FF20487048710621164860
:1050B000FFF70AFA1D4908800846008800121249C5
:1050C00088711A480078C8710820194908800020A2
:1050D0000F4908700F490870164908800846028871
:1050E0000088401C0B4618800748815C0748FBF786
:1050F000FDFE012200E004E040F226610348FBF7D8
:1051000094FEBDE8F88F00006C25002000380140B7
:105110005B0100205D0100206C2B002002010020BB
:105120004A15002061000020FA1100204C010020E7
:105130004A010020460100205A0100204E010020B3
:105140004E0400203608002006100020CE1000205B
:1051500070B5002400250220FE4908800320FE4986
:105160000880FC480088002801DD601CC4B2FA48B1
:105170000088002801DD601CC4B2002C7EDDF748E9
:105180000078002866D0F6480078401CF449087082
:1051900008460078022801DD01200870ED480088EB
:1051A00000280FDDEE48007801280BD10020EB49E4
:1051B00008700120EB490870E6480078EA49087059
:1051C000012512E0E448008800280EDDE44800785C
:1051D00002280AD10020E14908700120E349087043
:1051E000DD480078E04908700225012D32D1032006
:1051F000DD494870012088705320C8700020087174
:10520000202048710621D848FFF75EF9D849088068
:10521000084600880012D4498871D5480078C871C2
:105220000820D44908800020D34908800120D349B0
:105230000870D14802880088401CCF4B1880CA48AB
:10524000815CCF48FBF752FE012240F22661CC4838
:10525000FBF7EBFDC948007858B9C248007801282F
:1052600001D1C8490870C1480078012801D1C64958
:105270000870C648007830B3C54800E08DE000787B
:10528000C449097888421ED0C1480078C1490870D5
:10529000C1480088401CC04908800846008808288A
:1052A00011DD0020B94908706420BA490870002057
:1052B000B94908806420B94908700020B8490880BD
:1052C0000120A6490870AD480078F0B9A3480078DD
:1052D000D8B9AF480078B1490978884215D0AC48B0
:1052E0000078AE490870AE480088401CAC49088080
:1052F00008460088FA2808DD6420A84908700020C4
:10530000A74908800120954908709E480078012827
:105310001FD1A4480078E0B99D480078A2490978D7
:10532000884216D09A4800789F4908709F480088A4
:10533000401C9E49088008460088B0F57A6F08DD59
:1053400064209949087000209849088001209549F7
:1053500008708D48007801281FD195480078E0B981
:105360008B48007893490978884216D0884800789D
:105370009049087090480088401C8F490880084672
:105380000088B0F57A6F08DD64208A490870002033
:10539000894908800120864908706E48008830B924
:1053A0000020784908707F490870804908806A4861
:1053B000008830B90020744908707D4908707E4922
:1053C000088070BD70B504460D467C480078C0B9B1
:1053D0006F4840787A490978884212D06C48407802
:1053E0007749087077480088401C7649088008464D
:1053F00000880A2805DD01207049087000207149E5
:1054000008806E480078012835D102206B49087069
:10541000554908700320487020128870CC702812FB
:1054200008714D7106215048FFF74EF86649088013
:105430000846008800124C49887163480078C8719A
:1054400008204C49088000204B49088001205F4912
:105450000870012240F226614948FBF7E6FC464805
:1054600002880088401C444B18803F48815C4448B7
:10547000FBF73CFD4AE051480078022846D15348EA
:1054800000780A2819D10020504908704B4908704B
:105490004F4908804F4908704F48007828B94F4855
:1054A0000078401C4D49087030E04B4800780128D6
:1054B0002CD164204A49087028E035484078494991
:1054C0000978884222D032484078464908704048DE
:1054D0000088401C3E49088008460088502815DD99
:1054E000002008803C48007840B90120334908700A
:1054F00038480078401C3749087007E000202F49E1
:1055000008703449087064203549087031480078C3
:10551000032806DB0020294908702D4908802D4901
:10552000087070BD70B504460D462448007810B967
:105530006520224908702148007865287ED16620C0
:105540001E49087002200849087006204870201281
:10555000887049E086010020880100208301002036
:10556000820100207E0100206C2500207F010020A8
:10557000500100204A010020460100206E01002059
:1055800000380140800100208101002084010020BA
:105590003404002076010020780100207A010020E8
:1055A0007C0100208F0000206F010020700100208E
:1055B000900000207201002074010020630100208F
:1055C000680100206A0100204C01002064010020D5
:1055D00066010020620100205A0300206C010020B7
:1055E0004A00002065010020CC70281208714D711E
:1055F0000621FA48FEF768FFF94908800846008846
:105600000012F6498871F6480078C8710820F549FB
:1056100008800020F44908800120F4490870012224
:1056200040F22661F248FBF700FCEF480288008850
:10563000401CED4B1880E948815C00E003E0EC4839
:10564000FBF754FC4CE0EB480078662848D1E7486B
:1056500000780B2826D10020E4490870E54908703D
:10566000E5490880E5490870E5480078012803D03D
:10567000E348007802280AD10120E2490870E24894
:105680000078401CE04908700020E0490870DC48C0
:105690000078642802D10020DD4908700020D84934
:1056A00008701DE0DB480078DB490978884217D094
:1056B000D8480078D8490870CF480088401CCE49A7
:1056C000088008460088B0F5487F09DD0020088082
:1056D0006520C8490870C9480078401CC74908704F
:1056E000C6480078032810DB0020C2490870C24970
:1056F0000880C2490870C2480078642802D100209E
:10570000C34908700020BE49087070BD2DE9F04102
:1057100006460D461746B748007810B9C920B54966
:105720000870B4480078C9285BD1CA20B149087014
:105730000220AA4908701020487030128870CE707C
:10574000281208714D716806000E8871002410E05F
:1057500037F814000012072101EB44019F4A50540E
:1057600017F81410072000EB4400401C1154601C73
:1057700084B2AC42ECDB072000EB4400C1B2974896
:10578000FEF7A2FE9649088008460088001207210D
:1057900001EB4401914A505491480178072000EBF5
:1057A0004400401C1154072000EB4400801C8D492C
:1057B000088000208C49088001208C490870012253
:1057C00040F226618A48FBF730FB87480288008850
:1057D000401C854B18808148815C8548FBF786FB1F
:1057E00031E084480078CA282DD1804800780C2800
:1057F0000BD100207D4908707E4908707E490880E1
:105800007E4908707E4908701DE082480078824910
:105810000978884217D07F4800787F490870764819
:105820000088401C7449088008460088B0F5487F0D
:1058300009DD00200880C9206E4908706F48007893
:10584000401C6E4908706D480078032808DB002072
:105850006849087068490880684908706849087094
:10586000BDE8F0810246881AC0F34F00704710B5BA
:1058700004460B460020694908706948008A0028E0
:1058800071D133B921466748FFF7ECFF66490880BC
:10589000CAE1012B09D121466448FFF7E3FF42F238
:1058A0001071084460490880BEE1022B09D12146ED
:1058B0005F48FFF7D7FF44F6206108445A49088043
:1058C000B2E1032B09D121465A48FFF7CBFF47F23B
:1058D0003051084454490880A6E1042B09D12146DF
:1058E0004F48FFF7BFFF49F6404108444E49088042
:1058F0009AE1082BCCD121464C48FFF7B3FF4A4927
:10590000088001204549087047480088B0F5827F2B
:1059100003D109204449088086E14348008840F2C9
:105920000511884203D117203F4908807CE13E4899
:105930000088B0F5837F03D10B203B49088073E1D9
:105940003948008840F20711884203D19C2036492B
:10595000088069E134480088B0F5847F04D19D2037
:105960003149088060E128E12F48008840F20911A0
:10597000884203D18E202C49088055E12A480088AE
:10598000B0F5807F03D10120274908804CE12648EB
:10599000008840F20111884203D102202249088088
:1059A00042E121480088B0F5817F03D103201E49E0
:1059B000088039E11C48008840F20311884203D175
:1059C0000420194908802FE117480088B0F5857F29
:1059D00032D136201449088026E100006C250020D1
:1059E0004C0100204A0100204601002064010020F3
:1059F00000380140630100206601002062010020A0
:105A00004A000020470300204803002050030020E4
:105A10005A03002034040020650100206D0100209D
:105A2000FA1100204E0400204C000020360800200F
:105A300006100020CE100020D648008840F20B113E
:105A4000884203D13C20D3490880EDE0D14800884A
:105A5000B0F5867F03D1D420CE490880E4E0CD485C
:105A6000008840F20D11884203D1D520C949088031
:105A7000DAE0C8480088B0F5877F03D1DA20C5494D
:105A80000880D1E0C348008840F20F11884203D15A
:105A9000E220C0490880C7E0BE480088B0F5887F92
:105AA00003D1E320BB490880BEE0BA48008840F239
:105AB0001111884203D1E420B6490880B4E0B5480A
:105AC0000088B0F5897F03D1E520B2490880ABE0BA
:105AD000B048008840F21311884203D1E620AD4956
